:1000000054C00000E6C00000F8C000000EC10000AF
:1000100069C0000067C0000065C0000063C0000048
:1000200061C000005FC000005DC000005BC0000058
:1000300059C0000057C0000055C000000EC10000AC
:1000400051C000004FC000004DC000004BC0000078
:1000500049C0000047C0000045C0000043C0000088
:1000600041C000003FC000003DC000003BC0000098
:1000700039C0000037C0000035C0000033C00000A8
:1000800031C000002FC000002DC0000005A84CCDDD
:10009000B2D44EB93836A9020C50B9918688083CC2
:1000A000A6AAAA2ABE000000803F11241FBECFEFDF
:1000B000D0E1DEBFCDBF11E0A0E0B1E0E4E0F7E0C9
:1000C00000E00BBF02C007900D92A030B107D9F736
:1000D00021E0A0E0B1E001C01D92AD3CB207E1F724
:1000E0003FD10EC38DCF11BA87E089BF8AE28093DA
:1000F0006A0008959F70906323B12F7B23B928B3C2
:100100002E7F28BB9FB9779BFECF9FB198B391609C
:1001100098BB98B39E7F98BB8FB9779BFECF8FB16A
:1001200088B3816088BB83B1806483B9089587B345
:10013000876087BB87B3877F87BB84E58DB91EB88F
:1001400087B3816087BB88B3816088BB80E090E023
:10015000D1CF0895CF92DF92EF92FF921F93CF936A
:10016000DF9310E0C12CD12C760120C0C12FD0E04C
:10017000C701B60142D220E030E040E85FE3F9D0A9
:1001800020E030EF4FEF54E4D5D157D1CC0FDD1F35
:10019000CB5FDE4F798368832DEF3DEA40E85DE376
:1001A000C701B601E6D06B017C011F5F1436F0F287
:1001B000DF91CF911F91FF90EF90DF90CF90089546
:1001C0008CE083BF86E181BF12BE87B7826087BFA4
:1001D00008951F920F920FB60F9211248F9381E012
:1001E0008093040112BE10920301109202018F91BC
:1001F0000F900FBE0F901F9018951F920F920FB681
:100200000F9211248F9382E08093040112BE10920A
:1002100003011092020110920101109200018F91CE
:100220000F900FBE0F901F9018951F920F920FB650
:100230000F9211248F9383E08093040112BE1092D9
:1002400003011092020110920101109200018F919E
:100250000F900FBE0F901F9018951F920F920FB620
:100260000F9211240BB60F922F933F934F935F93EE
:100270006F937F938F939F93AF93BF93EF93FF936E
:10028000809104018130B9F48091020190910301C1
:10029000899690930301809302012CDF80910201E3
:1002A000909103018F3F9F4008F447C010920301D3
:1002B0001092020142C0823001F5809102019091BA
:1002C000030118DF80910001909101010196909344
:1002D000010180930001059780F1809102019091C6
:1002E000030180952FE092279093030180930201F0
:1002F000109201011092000120C08330F1F480912E
:100300000001909101019C012F5F3F4F309301014B
:1003100020930001880F991FFC01EB5FFE4F808145
:100320009181E8DE80910001909101018436910570
:1003300020F01092010110920001FF91EF91BF9106
:10034000AF919F918F917F916F915F914F913F916D
:100350002F910F900BBE0F900FBE0F901F9018950E
:100360008FEF82B9F7DEE3DEBEDE2ADF7894FFCFBF
:100370005058BB27AA270ED0A3C094D030F099D0F4
:1003800020F031F49F3F11F41EF489C00EF4E09583
:10039000E7FB7FC0E92FA5D080F3BA176207730788
:1003A0008407950718F071F49EF5BDC00EF4E09532
:1003B0000B2EBA2FA02D0B01B90190010C01CA011F
:1003C000A0011124FF27591B99F0593F50F4503ECA
:1003D00068F11A16F040A22F232F342F4427585FBC
:1003E000F3CF469537952795A795F0405395C9F7D4
:1003F0007EF41F16BA0B620B730B840BBAF091508C
:10040000A1F0FF0FBB1F661F771F881FC2F70EC02A
:10041000BA0F621F731F841F48F4879577956795FD
:10042000B795F7959E3F08F0B3CF9395880F08F0E6
:100430009927EE0F9795879508955BD088F09F5781
:1004400090F0B92F9927B751A0F0D1F0660F771F20
:10045000881F991F1AF0BA95C9F712C0B13081F000
:1004600062D0B1E008955FC0672F782F8827B85F0A
:1004700039F0B93FCCF3869577956795B395D9F761
:100480003EF490958095709561957F4F8F4F9F4F6B
:10049000089597F99F6780E870E060E008959FEF06
:1004A00080EC089500240A9416161706180609060B
:1004B000089500240A9412161306140605060895DA
:1004C000092E0394000C11F4882352F0BB0F40F462
:1004D000BF2B11F460FF04C06F5F7F4F8F4F9F4FA2
:1004E000089557FD9058440F551F59F05F3F71F024
:1004F0004795880F97FB991F61F09F3F79F087958B
:100500000895121613061406551FF2CF4695F1DF13
:1005100008C0161617061806991FF1CF86957105A3
:10052000610508940895E894BB2766277727CB01D7
:1005300097F908950BD0C4CFB5DF28F0BADF18F0D3
:10054000952309F0A6CFABCF1124EECFCADFA0F3DD
:10055000959FD1F3950F50E0551F629FF001729F58
:10056000BB27F00DB11D639FAA27F00DB11DAA1F77
:10057000649F6627B00DA11D661F829F2227B00DC4
:10058000A11D621F739FB00DA11D621F839FA00D4F
:10059000611D221F749F3327A00D611D231F849F9F
:1005A000600D211D822F762F6A2F11249F575040F6
:1005B0008AF0E1F088234AF0EE0FFF1FBB1F661F91
:1005C000771F881F91505040A9F79E3F510570F04A
:1005D00060CFAACF5F3FECF3983EDCF3869577952A
:1005E0006795B795F795E7959F5FC1F7FE2B880F45
:1005F000911D9695879597F908959F9305D00F9033
:1006000007FCEE5F28C04BCF74DFE8F3E894E0E02E
:10061000BB279F57F0F02AED3FE049EC06C0EE0FF4
:10062000BB0F661F771F881F28F0B23A6207730757
:10063000840728F0B25A620B730B840BE3959A95EA
:1006400072F7803830F49A95BB0F661F771F881FAA
:10065000D2F7904813C0EF93E0FF06C0A2EA2AED5C
:100660003FE049EC5FEB96DE2BDF0F90039401FC3B
:100670009058ECE8F0E00EC09F3F31F0915020F42C
:10068000879577956795B795880F911D969587956E
:1006900097F908959F938F937F936F93FF93EF93B1
:1006A0009B01AC0147DFEF91FF9105D02F913F9166
:1006B0004F915F913FCFDF93CF931F930F93FF92A3
:1006C000EF92DF927B018C01689405C0DA2EEF0176
:1006D0003DDFFE01E894A591259135914591559115
:1006E000AEF3EF0157DEFE019701A801DA9479F726
:1006F000DF90EF90FF900F911F91CF91DF910895C0
:04070000F894FFCF9B
:00000001FF
